:020000040800F2
:1000000060060020B1010008150400080D04000876
:10001000110400086B0200086907000800000000D6
:1000200000000000000000000000000019060008A9
:100030006F02000800000000170400080507000810
:10004000CB010008CB010008CB010008CB01000860
:10005000CB010008CB010008CB010008CB01000850
:10006000CB010008CB010008CB010008CB01000840
:10007000CB010008CB010008CB010008CB01000830
:10008000CB010008CB010008CB010008CB01000820
:10009000CB010008CB010008CB010008CB01000810
:1000A000CB010008CB010008CB010008CB01000800
:1000B000CB010008CB010008CB010008CB010008F0
:1000C000CB010008CB010008CB010008CB010008E0
:1000D000CB010008CB010008CB010008CB010008D0
:1000E000CB010008CB010008CB010008CB010008C0
:1000F000CB010008CB010008CB010008CB010008B0
:10010000CB010008CB010008CB010008CB0100089F
:10011000CB010008CB010008CB010008CB0100088F
:10012000CB010008CB010008CB010008CB0100087F
:1001300000F002F800F02CF80AA090E8000C8244CD
:100140008344AAF10107DA4501D100F021F8AFF2AA
:10015000090EBAE80F0013F0010F18BFFB1A43F0A5
:1001600001031847D0060000E00600000023002429
:1001700000250026103A28BF78C1FBD8520728BFB7
:1001800030C148BF0B6070471FB51FBD10B510BD13
:1001900000F031F81146FFF7F7FF00F0E7FA00F042
:1001A0004FF803B4FFF7F2FF03BC00F057F800006C
:1001B0000948804709480047FEE7FEE7FEE7FEE7FB
:1001C000FEE7FEE7FEE7FEE7FEE7FEE70448054937
:1001D000054A064B70470000090700083101000876
:1001E0006000002060060020600200206002002005
:1001F000704770477047754600F02CF8AE46050012
:100200006946534620F00700854618B020B5FFF731
:10021000DDFFBDE820404FF000064FF000074FF033
:1002200000084FF0000B21F00701AC46ACE8C00914
:10023000ACE8C009ACE8C009ACE8C0098D4670471D
:1002400010B50446AFF300802046BDE81040FFF72C
:10025000A8BF000000487047000000200149182096
:10026000ABBEFEE726000200704700BFFEE7704706
:100270000549096821F01001034A11601146096817
:100280000143116070470000002002400146002039
:10029000034A106800F038000843106070470000FF
:1002A0000020024008B50F20ADF8000003208DF8B3
:1002B000020010208DF803006946074800F00EF890
:1002C0004FF44070ADF8000004208DF8030069463B
:1002D000014800F003F808BD000801402DE9F04195
:1002E000024600250026002000230024002791F864
:1002F00003C00CF00F0591F803C00CF0100CBCF11A
:10030000000F03D091F802C04CEA050591F800C037
:10031000BCF1000F31D0146800202BE04FF0010C2D
:100320000CFA00F3B1F800C00CEA03069E4220D19B
:1003300083004FF00F0C0CFA03F7BC4305FA03FCE3
:100340004CEA040491F803C0BCF1280F06D14FF029
:10035000010C0CFA00FCC2F814C00AE091F803C0CA
:10036000BCF1480F05D14FF0010C0CFA00FCC2F8AB
:1003700010C0401C0828D1D31460B1F800C0BCF1F3
:10038000FF0F34DD546800202EE000F1080C4FF020
:10039000010808FA0CF3B1F800C00CEA03069E420B
:1003A00021D183004FF00F0C0CFA03F7BC4305FA80
:1003B00003FC4CEA040491F803C0BCF1280F05D1FA
:1003C00000F1080C08FA0CF8C2F8148091F803C088
:1003D000BCF1480F07D100F1080C4FF0010808FAF2
:1003E0000CF8C2F81080401C0828CED35460BDE839
:1003F000F0810246002093680B400BB1012000E021
:1004000000207047416170470161704700BFFEE7FF
:1004100000BFFEE77047704729B1064A9269024360
:10042000044B9A6104E0034A92698243014B9A614A
:10043000704700000010024010B500F037F84FF48C
:10044000803000F08BF800BF312000F055F8002814
:10045000FAD01020FFF70CFF0220FFF717FF002053
:1004600000F070F8002000F0ABF84FF4806000F06E
:100470009BF84FF4E0114FF4803000F0B3F8012006
:1004800000F0AAF800BF392000F036F80028FAD0B2
:10049000022000F0B5F800BF00F04CF80828FBD1AE
:1004A00001210420FFF7B8FF10BD00000F480068CD
:1004B00040F001000D490860084640680C490840BA
:1004C0000A494860084600680A4908400749086028
:1004D0000846006820F4802008600846406820F440
:1004E000FE0048604FF41F00886070470010024013
:1004F0000000FFF8FFFFF6FE10B5014600220023C2
:1005000000204A11012A02D1094C236806E0022A80
:1005100002D1074C236A01E0054C636A01F01F0217
:10052000012494401C400CB1012000E0002010BDCB
:10053000001002400248406800F00C0070470000C4
:100540000010024001460020034A506820F0F000ED
:1005500008435060704700000010024011490968CC
:1005600021F480310F4A11601146096821F480217D
:100570001160B0F5803F03D0B0F5802F0ED106E0BA
:100580000849096841F48031064A116007E00549CD
:10059000096841F4A021034A116000E000BF00BFD8
:1005A000704700000010024001460020034A5068D6
:1005B00020F4E060084350607047000000100240E3
:1005C00001460020034A506820F4605040EAC10010
:1005D00050607047001002400149086670470000F3
:1005E0000000424202460020044B586820F47C1070
:1005F00042EA01031843014B586070470010024063
:1006000001460020034A506820F003000843506070
:100610007047000000100240704710B500F002F86B
:1006200010BD00000CB50020019000903348006818
:1006300040F480303149086000BF3048006800F461
:10064000003000900198401C0190009818B9019862
:10065000B0F5A06FF1D12948006800F4003010B166
:100660000120009001E0002000900098012843D173
:100670002348006840F010002149086008460068DF
:1006800020F0030008600846006840F0020008609F
:100690001A4840681949486008464068486008465A
:1006A000406840F4806048600846406820F47C1050
:1006B00048600846406840F4E81048600846006812
:1006C00040F08070086000BF0C48006800F00070C7
:1006D0000028F9D00948406820F003000749486025
:1006E0000846406840F00200486000BF0348406888
:1006F00000F00C000828F9D10CBD000000100240E9
:10070000002002407047000010B51348006840F018
:1007100001001149086008464068104908400E4928
:100720004860084600680E4908400B4908600846C2
:10073000006820F4802008600846406820F4FE002D
:1007400048604FF41F008860FFF767FF4FF00060BC
:100750000449086010BD0000001002400000FFF8CE
:10076000FFFFF6FE08ED00E000BFFEE7FFF764FEC6
:10077000FFF798FD5BE04FF480712D48FFF739FEDD
:1007800005464FF400712A48FFF733FE04460CB9C2
:10079000012000E000200DB9012100E00021084007
:1007A00020B101212248FFF72DFE03E0012120485E
:1007B000FFF72AFE0CB9012000E00020012D01D135
:1007C000012100E00021084020B102211848FFF774
:1007D00019FE03E002211648FFF716FE012C01D195
:1007E000012000E000200DB9012100E000210840B7
:1007F00020B104210E48FFF705FE03E004210C4858
:10080000FFF702FE012C01D1012000E00020012DA4
:1008100001D1012100E00021084020B10821044855
:10082000FFF7F0FD03E008210148FFF7EDFDA2E727
:100830000008014044080008000000206006000095
:040840006C0100083F
:0400000508000131BD
:00000001FF
